:0300000002069263
:0C069200787FE4F6D8FD7581070206D9D8
:1005F80041542B5253540041542B43574D4F4445BB
:100608003D320041542B4349504D55583D3100412E
:10061800542B4349505345525645523D312C38309E
:100628003830005265626F6F7420736F6F6E004FC1
:1006380050454E00434C4F5345004F4B5F33004FDE
:100648004B5F340041542B43574D4F44453D3100D7
:10065800362B737369642B7077642B00434C4F53AC
:10066800455F414C4C004F5050454E5F414C4C004B
:100678004552524F520000000000000000000000E8
:0A0688000000000000000000000068
:10079B006028002D00000000000000000000000099
:1007AB00000000000000000000000000000000003E
:1007BB000000000000000000000000004100560097
:1007CB0041001A00430057000000520008000000CF
:1007DB0000000000000000000000000000000052BC
:1007EB00001B0000000000000000000000000000E3
:0C07FB0000000000410007004100000069
:1008E000EFD3940974809480EF50042430FF2224C5
:0308F00041FF22A3
:0A0808007B017A00792D7D287C0029
:10081200900065EBF0A3EAF0A3E9F0A3ECF0A3EDFE
:01082200F0E5
:10082300E4FFFED3900069E09FEE6480F8900068D7
:10083300E0648098401A900065E0FBA3E0FAA3E02F
:10084300F98F828E83E41205030FBF00010E80D35C
:010853002282
:0E08F300C2ACC2998F993099FDC299D2AC2245
:1008540090007DEBF0A3EAF0A3E9F090007DE0FBCB
:10086400A3E0FAA3E0F91204EAFF60141208F37F8C
:100874000512090B90007EE475F00112052580DB5A
:100884007F0512090B7F0D1208F37F0512090B7FF8
:0B0894000A1208F37FE87E0302000355
:0E053B00900065EBF0A3EAF0A3E9F0A3EDF069
:1005490078697C007D017BFF7A06797E7E007F14C5
:100559001204C49000697441F0A37454F0A3742B7D
:10056900F0A37443F0A37449F0A37450F0A3745337
:10057900F0A37445F0A3744EF0A37444F0A3743D42
:10058900F0900075742CF0900055E0900074F09094
:100599000068E075F00A84FF1208E0900076EFF039
:1005A900900068E075F00A84AFF01208E0900077D7
:1005B900EFF07B017A007969120854900065E0FB3D
:1005C900A3E0FAA3E0F91204EAFF60141208F37F2A
:1005D9000512090B900066E475F00112052580DB10
:0F05E9007F0512090B7F0A1208F37E0002000340
:10089F00C2ACD2997BFF7A0579F81208547BFF7AA4
:1008AF000579FF1208547BFF7A06790B1208547BE7
:0B08BF00FF7A067917120854D2AC2211
:1000260090005A7402F0A37458F0E4A3F0A3F012FF
:0C00360008CA7FE87E0312000312089F36
:1000420090005EE4F0A37409F07FE87E03120003DF
:10005200C29090005CE0FEA3E0FF120901D29090F2
:10006200005CE0FEA3E0FFC390005BE09FFF900016
:100072005AE09EFE120901900056E0FF3395E0FE21
:10008200EF64014E70BAC2A1C2AC90002DE0642BA5
:1000920060030203E7A3E0644960030203E7A3E00D
:1000A200645060030203E7A3E0644460030203E7D1
:1000B200900033E0642C60030203E7900032E0908A
:1000C2000055F0900036E0B43A0990005EE4F0A3E7
:1000D200740AF090005EE0FEA3E0242DF582740025
:1000E2003EF583E0B430117BFF7A06792B7D0B124B
:1000F200053B12089F0203E790005EE0FEA3E024A6
:100102002DF58274003EF583E0B4310AC2A17BFF73
:100112007A067937806990005EE0FEA3E0242DF52F
:100122008274003EF583E0B4320BD2A17BFF7A06E3
:10013200793C0203E290005EE0FEA3E0242DF5820A
:1001420074003EF583E0B4331290005C7401F0A3B6
:10015200742CF07BFF7A067942802490005EE0FEE8
:10016200A3E0242DF58274003EF583E0B4341590AB
:10017200005C7401F0A37490F07BFF7A0679477DEE
:10018200040203E490005EE0FEA3E0FF242DF5826A
:0D01920074003EF583E064356003020390C5
:10019F009000607409F0EF2401FFE43EA3F0A3EF99
:1001AF00F0E4A3F0A3F07B017A0079087D12FC1232
:1001BF0008127B017A00791B12081290005EE0FE94
:1001CF00A3E0242EF58274003EF583E0642B6003D8
:1001DF00020386900061E475F001120525FE742D6F
:1001EF0025F0F58274003EF583E0642B60309000BB
:1001FF0061E0FEA3E0FF242DF58274003EF583E05D
:10020F00FD90005EE0FAA3E0FBC3EF9BFFEE9AFECA
:10021F0074062FF58274003EF583EDF080B59000E3
:10022F00017401F0A37400F0A37408F0900061E072
:10023F00FFA3E0A3CFF0A3EFF0900061E475F0010E
:10024F00120525FE742D25F0F58274003EF583E02E
:10025F00642B6030900061E0FEA3E0FF242DF58257
:10026F0074003EF583E0FD900063E0FAA3E0FBC36A
:10027F00EF9BFFEE9AFE741A2FF58274003EF58302
:10028F00EDF080B59000047401F0A37400F0A37436
:10029F001BF07BFF7A06794C120854120808900065
:1002AF002D7441F0A37454F0A3742BF0A37443F096
:1002BF00A37457F0A3744AF0A37441F0A37450F0E1
:1002CF00A3743DF0A37422F0900001E0FBA3E0FAC9
:1002DF00A3E0F91204EAFF601D900060E004F0242F
:1002EF002DF582E43400F583EFF0900002E475F011
:1002FF000112052580D2900060E004F0242DF582D4
:10030F00E43400F5837422F0900060E004F0242DB3
:10031F00F582E43400F583742CF0900060E004F073
:10032F00242DF582E43400F5837422F0900004E06C
:10033F00FBA3E0FAA3E0F91204EAFF601D9000604E
:10034F00E004F0242DF582E43400F583EFF0900003
:10035F0005E475F00112052580D2900060E004F0ED
:10036F00242DF582E43400F5837422F07B017A00AA
:0F037F00792D12085480617BFF7A0679587D0B27
:10038E00805490005EE0FEA3E0242DF58274003EC2
:10039E00F583E0B43812D297D296D295D2947BFFE1
:1003AE007A0679647D09802E90005EE0FEA3E0243B
:1003BE002DF58274003EF583E0B43912C297C296D1
:1003CE00C295C2947BFF7A06796E7D0980087BFF09
:1003DE007A0679787D0512053B120808E4900056DE
:0303EE00F0D2AC9E
:0303F100020042C5
:0300230002071EB3
:10071E00C0E0C083C082C0D075D000C004C005C088
:03072E0006C007FB
:10073100C2ACC298900000E0FF3395E0FE742D2F0B
:10074100F58274003EF583E599F0900000E004F035
:10075100E0FFFD3395E0FC742C2DF58274003CF52F
:1007610083E0640A600BEF3395E0FEEF64274E707F
:1007710010742D2DF58274003CF583E4F090000097
:09078100F09000567401F0D2ACB6
:10078A00D007D006D005D004D0D0D082D083D0E014
:01079A00322C
:10000300D3EF9400EE6480948040147D6E7C00ED09
:0F0013001D70011CED4C70F7EF1F70E41E80E1B3
:0100220022BB
:07090B00AE071FEE70FA2297
:0A090100EF1F70011E144E70F72264
:1008CA00758920758DFD758BFDD28ED29CC29FD203
:0608DA009ED2AFD2AC2259
:10069E00020026E493A3F8E493A34003F68001F24C
:1006AE0008DFF48029E493A3F85407240CC8C3335D
:1006BE00C4540F4420C8834004F456800146F6DF2C
:1006CE00E4800B010204081020408090079BE47E1A
:1006DE00019360BCA3FF543F30E509541FFEE49321
:1006EE00A360010ECF54C025E060A840B8E493A3E8
:1006FE00FAE493A3F8E493A3C8C582C8CAC583CA13
:10070E00F0A3C8C582C8CAC583CADFE9DEE780BECA
:0108070000F0
:1003F400E709F608DFFA8046E709F208DFFA803EEB
:1004040088828C83E709F0A3DFFA8032E309F608D7
:10041400DFFA8078E309F208DFFA807088828C833F
:10042400E309F0A3DFFA806489828A83E0A3F608F3
:10043400DFFA805889828A83E0A3F208DFFA804CCD
:1004440080D280FA80C680D4806980F280338010A4
:1004540080A680EA809A80A880DA80E280CA80330D
:1004640089828A83ECFAE493A3C8C582C8CCC58385
:10047400CCF0A3C8C582C8CCC583CCDFE9DEE78055
:100484000D89828A83E493A3F608DFF9ECFAA9F0D4
:10049400EDFB2289828A83ECFAE0A3C8C582C8CC2A
:1004A400C583CCF0A3C8C582C8CCC583CCDFEADE43
:1004B400E880DB89828A83E493A3F208DFF980CCA5
:1004C40088F0EF60010E4E60C388F0ED2402B4049E
:1004D4000050B9F582EB2402B4040050AF23234545
:0604E40082239004447322
:1004EA00BB010689828A83E0225002E722BBFE0210
:0904FA00E32289828A83E4932243
:10050300F8BB010DE58229F582E5833AF583E8F02E
:10051300225006E92582C8F622BBFE05E92582C8DA
:02052300F222C2
:10052500C5F0F8A3E028F0C5F0F8E5821582700261
:060535001583E038F022FE
:00000001FF
